{
  "contractName": "createpayment_onchain",
  "abi": [
    {
      "anonymous": false,
      "inputs": [
        {
          "indexed": true,
          "internalType": "uint256",
          "name": "id",
          "type": "uint256"
        }
      ],
      "name": "Logcancelpayment",
      "type": "event"
    },
    {
      "anonymous": false,
      "inputs": [
        {
          "indexed": true,
          "internalType": "uint256",
          "name": "id",
          "type": "uint256"
        },
        {
          "indexed": false,
          "internalType": "address",
          "name": "receiver",
          "type": "address"
        },
        {
          "indexed": false,
          "internalType": "uint256",
          "name": "total_am",
          "type": "uint256"
        },
        {
          "indexed": false,
          "internalType": "string[]",
          "name": "_payer_list",
          "type": "string[]"
        }
      ],
      "name": "Logcreatepayment",
      "type": "event"
    },
    {
      "anonymous": false,
      "inputs": [
        {
          "indexed": true,
          "internalType": "uint256",
          "name": "id",
          "type": "uint256"
        }
      ],
      "name": "Logfinish",
      "type": "event"
    },
    {
      "anonymous": false,
      "inputs": [
        {
          "indexed": false,
          "internalType": "uint256",
          "name": "id",
          "type": "uint256"
        },
        {
          "indexed": false,
          "internalType": "string",
          "name": "payer",
          "type": "string"
        },
        {
          "indexed": false,
          "internalType": "address",
          "name": "payer_address",
          "type": "address"
        },
        {
          "indexed": false,
          "internalType": "uint256",
          "name": "price",
          "type": "uint256"
        },
        {
          "indexed": false,
          "internalType": "uint256",
          "name": "received_am",
          "type": "uint256"
        }
      ],
      "name": "Logpay",
      "type": "event"
    },
    {
      "anonymous": false,
      "inputs": [
        {
          "indexed": false,
          "internalType": "uint256",
          "name": "id",
          "type": "uint256"
        },
        {
          "indexed": false,
          "internalType": "uint256",
          "name": "amount",
          "type": "uint256"
        },
        {
          "indexed": false,
          "internalType": "uint256",
          "name": "balance",
          "type": "uint256"
        },
        {
          "indexed": false,
          "internalType": "address",
          "name": "receiver",
          "type": "address"
        }
      ],
      "name": "Logwithdraw",
      "type": "event"
    },
    {
      "anonymous": false,
      "inputs": [
        {
          "indexed": true,
          "internalType": "address",
          "name": "previousOwner",
          "type": "address"
        },
        {
          "indexed": true,
          "internalType": "address",
          "name": "newOwner",
          "type": "address"
        }
      ],
      "name": "OwnershipTransferred",
      "type": "event"
    },
    {
      "anonymous": false,
      "inputs": [
        {
          "indexed": false,
          "internalType": "address",
          "name": "account",
          "type": "address"
        }
      ],
      "name": "Paused",
      "type": "event"
    },
    {
      "anonymous": false,
      "inputs": [
        {
          "indexed": false,
          "internalType": "address",
          "name": "account",
          "type": "address"
        }
      ],
      "name": "Unpaused",
      "type": "event"
    },
    {
      "inputs": [],
      "name": "owner",
      "outputs": [
        {
          "internalType": "address",
          "name": "",
          "type": "address"
        }
      ],
      "stateMutability": "view",
      "type": "function"
    },
    {
      "inputs": [],
      "name": "paused",
      "outputs": [
        {
          "internalType": "bool",
          "name": "",
          "type": "bool"
        }
      ],
      "stateMutability": "view",
      "type": "function"
    },
    {
      "inputs": [
        {
          "internalType": "uint256",
          "name": "",
          "type": "uint256"
        }
      ],
      "name": "payments",
      "outputs": [
        {
          "internalType": "uint256",
          "name": "id",
          "type": "uint256"
        },
        {
          "internalType": "string",
          "name": "name",
          "type": "string"
        },
        {
          "internalType": "address",
          "name": "receiver",
          "type": "address"
        },
        {
          "internalType": "uint256",
          "name": "total_am",
          "type": "uint256"
        },
        {
          "internalType": "uint256",
          "name": "received_am",
          "type": "uint256"
        },
        {
          "internalType": "uint256",
          "name": "balance",
          "type": "uint256"
        },
        {
          "internalType": "bool",
          "name": "iscanceled",
          "type": "bool"
        },
        {
          "internalType": "bool",
          "name": "isfinished",
          "type": "bool"
        },
        {
          "internalType": "uint256",
          "name": "price",
          "type": "uint256"
        }
      ],
      "stateMutability": "view",
      "type": "function"
    },
    {
      "inputs": [
        {
          "internalType": "address",
          "name": "",
          "type": "address"
        },
        {
          "internalType": "uint256",
          "name": "",
          "type": "uint256"
        }
      ],
      "name": "paymentsbook",
      "outputs": [
        {
          "internalType": "uint256",
          "name": "",
          "type": "uint256"
        }
      ],
      "stateMutability": "view",
      "type": "function"
    },
    {
      "inputs": [],
      "name": "renounceOwnership",
      "outputs": [],
      "stateMutability": "nonpayable",
      "type": "function"
    },
    {
      "inputs": [
        {
          "internalType": "address",
          "name": "newOwner",
          "type": "address"
        }
      ],
      "name": "transferOwnership",
      "outputs": [],
      "stateMutability": "nonpayable",
      "type": "function"
    },
    {
      "inputs": [],
      "name": "initialize",
      "outputs": [],
      "stateMutability": "nonpayable",
      "type": "function"
    },
    {
      "inputs": [],
      "name": "pause",
      "outputs": [],
      "stateMutability": "nonpayable",
      "type": "function"
    },
    {
      "inputs": [],
      "name": "unpause",
      "outputs": [],
      "stateMutability": "nonpayable",
      "type": "function"
    },
    {
      "inputs": [
        {
          "internalType": "string",
          "name": "_name",
          "type": "string"
        },
        {
          "internalType": "uint256",
          "name": "_total_am",
          "type": "uint256"
        },
        {
          "internalType": "string[]",
          "name": "_payer_list",
          "type": "string[]"
        }
      ],
      "name": "createpayment",
      "outputs": [
        {
          "internalType": "bool",
          "name": "",
          "type": "bool"
        }
      ],
      "stateMutability": "nonpayable",
      "type": "function"
    },
    {
      "inputs": [
        {
          "internalType": "uint256",
          "name": "_id",
          "type": "uint256"
        }
      ],
      "name": "cancelpayment",
      "outputs": [
        {
          "internalType": "bool",
          "name": "",
          "type": "bool"
        }
      ],
      "stateMutability": "nonpayable",
      "type": "function"
    },
    {
      "inputs": [
        {
          "internalType": "uint256",
          "name": "_id",
          "type": "uint256"
        },
        {
          "internalType": "string",
          "name": "_payer",
          "type": "string"
        }
      ],
      "name": "pay",
      "outputs": [
        {
          "internalType": "bool",
          "name": "",
          "type": "bool"
        }
      ],
      "stateMutability": "payable",
      "type": "function"
    },
    {
      "inputs": [
        {
          "internalType": "uint256",
          "name": "_id",
          "type": "uint256"
        },
        {
          "internalType": "uint256",
          "name": "_withdraw_amount",
          "type": "uint256"
        }
      ],
      "name": "withdraw",
      "outputs": [],
      "stateMutability": "nonpayable",
      "type": "function"
    },
    {
      "inputs": [
        {
          "internalType": "uint256",
          "name": "_id",
          "type": "uint256"
        }
      ],
      "name": "fetch_payment",
      "outputs": [
        {
          "internalType": "string",
          "name": "name",
          "type": "string"
        },
        {
          "internalType": "address",
          "name": "receiver",
          "type": "address"
        },
        {
          "internalType": "uint256",
          "name": "total_am",
          "type": "uint256"
        },
        {
          "internalType": "string[]",
          "name": "payer_list",
          "type": "string[]"
        },
        {
          "internalType": "string[]",
          "name": "paid_payer_list",
          "type": "string[]"
        },
        {
          "internalType": "uint256",
          "name": "received_am",
          "type": "uint256"
        },
        {
          "internalType": "uint256",
          "name": "balance",
          "type": "uint256"
        },
        {
          "internalType": "bool",
          "name": "iscanceled",
          "type": "bool"
        },
        {
          "internalType": "bool",
          "name": "isfinished",
          "type": "bool"
        },
        {
          "internalType": "uint256",
          "name": "price",
          "type": "uint256"
        }
      ],
      "stateMutability": "view",
      "type": "function"
    },
    {
      "inputs": [
        {
          "internalType": "address",
          "name": "_receiver_address",
          "type": "address"
        }
      ],
      "name": "fetch_paymentsbook",
      "outputs": [
        {
          "internalType": "uint256[]",
          "name": "payments_book",
          "type": "uint256[]"
        }
      ],
      "stateMutability": "view",
      "type": "function"
    }
  ],
  "bytecode": "0x608060405234801561001057600080fd5b506134ae806100206000396000f3fe6080604052600436106100e85760003560e01c8063715018a61161008a5780638da5cb5b116100595780638da5cb5b146102d2578063a42f747c146102fd578063f1ae588f1461033a578063f2fde38b14610377576100e8565b8063715018a6146102485780638129fc1c1461025f5780638456cb591461027657806387d817891461028d576100e8565b80633f4ba83a116100c65780633f4ba83a146101a0578063441a3e70146101b757806350ceb857146101e05780635c975abb1461021d576100e8565b806308afaa2a146100ed5780630a2e397e1461012a578063154fbbc414610170575b600080fd5b3480156100f957600080fd5b50610114600480360381019061010f9190612203565b6103a0565b604051610121919061224b565b60405180910390f35b34801561013657600080fd5b50610151600480360381019061014c9190612203565b6105cb565b6040516101679a9998979695949392919061245b565b60405180910390f35b61018a60048036038101906101859190612641565b610942565b604051610197919061224b565b60405180910390f35b3480156101ac57600080fd5b506101b5610f04565b005b3480156101c357600080fd5b506101de60048036038101906101d9919061269d565b610f8a565b005b3480156101ec57600080fd5b50610207600480360381019061020291906127c3565b6111ab565b604051610214919061224b565b60405180910390f35b34801561022957600080fd5b506102326114af565b60405161023f919061224b565b60405180910390f35b34801561025457600080fd5b5061025d6114c6565b005b34801561026b57600080fd5b5061027461154e565b005b34801561028257600080fd5b5061028b611637565b005b34801561029957600080fd5b506102b460048036038101906102af9190612203565b6116bd565b6040516102c99998979695949392919061284e565b60405180910390f35b3480156102de57600080fd5b506102e76117cd565b6040516102f491906128e2565b60405180910390f35b34801561030957600080fd5b50610324600480360381019061031f9190612929565b6117f7565b6040516103319190612969565b60405180910390f35b34801561034657600080fd5b50610361600480360381019061035c9190612984565b611828565b60405161036e9190612a6f565b60405180910390f35b34801561038357600080fd5b5061039e60048036038101906103999190612984565b6118bf565b005b60006103aa6114af565b156103ea576040517f08c379a00000000000000000000000000000000000000000000000000000000081526004016103e190612add565b60405180910390fd5b816098600082815260200190815260200160002060020160009054906101000a900473ffffffffffffffffffffffffffffffffffffffff1673ffffffffffffffffffffffffffffffffffffffff163373ffffffffffffffffffffffffffffffffffffffff161461048f576040517f08c379a000000000000000000000000000000000000000000000000000000000815260040161048690612b6f565b60405180910390fd5b82600015156098600083815260200190815260200160002060080160009054906101000a900460ff161515146104fa576040517f08c379a00000000000000000000000000000000000000000000000000000000081526004016104f190612bdb565b60405180910390fd5b600015156098600086815260200190815260200160002060080160019054906101000a900460ff16151514610564576040517f08c379a000000000000000000000000000000000000000000000000000000000815260040161055b90612c6d565b60405180910390fd5b60016098600086815260200190815260200160002060080160006101000a81548160ff021916908315150217905550837f908eb89c4f3a33bef197d180f6667054f97f66fab7a72683322c5c068160ec1860405160405180910390a2600192505050919050565b60606000806060806000806000806000609860008c815260200190815260200160002060010180546105fc90612cbc565b80601f016020809104026020016040519081016040528092919081815260200182805461062890612cbc565b80156106755780601f1061064a57610100808354040283529160200191610675565b820191906000526020600020905b81548152906001019060200180831161065857829003601f168201915b50505050509950609860008c815260200190815260200160002060020160009054906101000a900473ffffffffffffffffffffffffffffffffffffffff169850609860008c8152602001908152602001600020600301549750609860008c8152602001908152602001600020600401805480602002602001604051908101604052809291908181526020016000905b828210156107b057838290600052602060002001805461072390612cbc565b80601f016020809104026020016040519081016040528092919081815260200182805461074f90612cbc565b801561079c5780601f106107715761010080835404028352916020019161079c565b820191906000526020600020905b81548152906001019060200180831161077f57829003601f168201915b505050505081526020019060010190610704565b505050509650609860008c8152602001908152602001600020600501805480602002602001604051908101604052809291908181526020016000905b8282101561089857838290600052602060002001805461080b90612cbc565b80601f016020809104026020016040519081016040528092919081815260200182805461083790612cbc565b80156108845780601f1061085957610100808354040283529160200191610884565b820191906000526020600020905b81548152906001019060200180831161086757829003601f168201915b5050505050815260200190600101906107ec565b505050509550609860008c8152602001908152602001600020600601549450609860008c8152602001908152602001600020600701549350609860008c815260200190815260200160002060080160009054906101000a900460ff169250609860008c815260200190815260200160002060080160019054906101000a900460ff169150609860008c81526020019081526020016000206009015490509193959799509193959799565b600061094c6114af565b1561098c576040517f08c379a000000000000000000000000000000000000000000000000000000000815260040161098390612add565b60405180910390fd5b828384600015156098600083815260200190815260200160002060080160009054906101000a900460ff161515146109f9576040517f08c379a00000000000000000000000000000000000000000000000000000000081526004016109f090612bdb565b60405180910390fd5b60008060005b609860008a815260200190815260200160002060040180549050811015610abd57609860008a81526020019081526020016000206004018181548110610a4857610a47612cee565b5b90600052602060002001604051602001610a629190612dbc565b6040516020818303038152906040528051906020012088604051602001610a899190612e04565b604051602081830303815290604052805190602001201415610aaa57600192505b8080610ab590612e4a565b9150506109ff565b506001151582151514610b05576040517f08c379a0000000000000000000000000000000000000000000000000000000008152600401610afc90612f05565b60405180910390fd5b60005b609860008a815260200190815260200160002060050180549050811015610bc657609860008a81526020019081526020016000206005018181548110610b5157610b50612cee565b5b90600052602060002001604051602001610b6b9190612dbc565b6040516020818303038152906040528051906020012088604051602001610b929190612e04565b604051602081830303815290604052805190602001201415610bb357600191505b8080610bbe90612e4a565b915050610b08565b506000151581151514610c0e576040517f08c379a0000000000000000000000000000000000000000000000000000000008152600401610c0590612f97565b60405180910390fd5b6098600089815260200190815260200160002060090154341015610c67576040517f08c379a0000000000000000000000000000000000000000000000000000000008152600401610c5e90613003565b60405180910390fd5b6098600089815260200190815260200160002060050187908060018154018082558091505060019003906000526020600020016000909190919091509080519060200190610cb6929190612052565b506098600089815260200190815260200160002060090154609860008a815260200190815260200160002060060154610cef9190613023565b609860008a8152602001908152602001600020600601819055506098600089815260200190815260200160002060090154609860008a815260200190815260200160002060070154610d419190613023565b609860008a8152602001908152602001600020600701819055507f2660a339ca43bf9e308b4291658002a518add61ca69f717c4fcd5b71e3cfa0a0888833609860008d815260200190815260200160002060090154609860008e815260200190815260200160002060060154604051610dbe959493929190613079565b60405180910390a160019550505050609860008281526020019081526020016000206005018054905060986000838152602001908152602001600020600401805490501415610e645760016098600083815260200190815260200160002060080160016101000a81548160ff021916908315150217905550807facfd522344c3aa30e163a9f0fa862341acb1a0643e669e324b3a788ae8dbdec960405160405180910390a25b50600060986000838152602001908152602001600020600401805490506098600084815260200190815260200160002060030154610ea29190613102565b905060008134610eb29190613133565b90503373ffffffffffffffffffffffffffffffffffffffff166108fc829081150290604051600060405180830381858888f19350505050158015610efa573d6000803e3d6000fd5b5050505092915050565b610f0c6119b7565b73ffffffffffffffffffffffffffffffffffffffff16610f2a6117cd565b73ffffffffffffffffffffffffffffffffffffffff1614610f80576040517f08c379a0000000000000000000000000000000000000000000000000000000008152600401610f77906131b3565b60405180910390fd5b610f886119bf565b565b610f926114af565b15610fd2576040517f08c379a0000000000000000000000000000000000000000000000000000000008152600401610fc990612add565b60405180910390fd5b816098600082815260200190815260200160002060020160009054906101000a900473ffffffffffffffffffffffffffffffffffffffff1673ffffffffffffffffffffffffffffffffffffffff163373ffffffffffffffffffffffffffffffffffffffff1614611077576040517f08c379a000000000000000000000000000000000000000000000000000000000815260040161106e90612b6f565b60405180910390fd5b81609860008581526020019081526020016000206007015410156110d0576040517f08c379a00000000000000000000000000000000000000000000000000000000081526004016110c790613245565b60405180910390fd5b8160986000858152602001908152602001600020600701546110f29190613133565b60986000858152602001908152602001600020600701819055503373ffffffffffffffffffffffffffffffffffffffff166108fc839081150290604051600060405180830381858888f19350505050158015611152573d6000803e3d6000fd5b507fb1fa436224ed25ec2843ce0a33b07d2cff81fd38487b3b4cc23be067eb2c0ed5838360986000878152602001908152602001600020600701543360405161119e9493929190613265565b60405180910390a1505050565b60006111b56114af565b156111f5576040517f08c379a00000000000000000000000000000000000000000000000000000000081526004016111ec90612add565b60405180910390fd5b60405180610160016040528060975481526020018581526020013373ffffffffffffffffffffffffffffffffffffffff168152602001848152602001838152602001600067ffffffffffffffff81111561125257611251612516565b5b60405190808252806020026020018201604052801561128557816020015b60608152602001906001900390816112705790505b50815260200160008152602001600081526020016000151581526020016000151581526020018351856112b89190613102565b8152506098600060975481526020019081526020016000206000820151816000015560208201518160010190805190602001906112f6929190612052565b5060408201518160020160006101000a81548173ffffffffffffffffffffffffffffffffffffffff021916908373ffffffffffffffffffffffffffffffffffffffff1602179055506060820151816003015560808201518160040190805190602001906113649291906120d8565b5060a08201518160050190805190602001906113819291906120d8565b5060c0820151816006015560e082015181600701556101008201518160080160006101000a81548160ff0219169083151502179055506101208201518160080160016101000a81548160ff02191690831515021790555061014082015181600901559050506097547fc2b87039d537b0583bc6601c65251fe96a47e7d052aca418125616839bf9de1933858560405161141c939291906132aa565b60405180910390a2609960003373ffffffffffffffffffffffffffffffffffffffff1673ffffffffffffffffffffffffffffffffffffffff16815260200190815260200160002060975490806001815401808255809150506001900390600052602060002001600090919091909150556097600081548092919061149f90612e4a565b9190505550600190509392505050565b6000603360009054906101000a900460ff16905090565b6114ce6119b7565b73ffffffffffffffffffffffffffffffffffffffff166114ec6117cd565b73ffffffffffffffffffffffffffffffffffffffff1614611542576040517f08c379a0000000000000000000000000000000000000000000000000000000008152600401611539906131b3565b60405180910390fd5b61154c6000611a61565b565b600060019054906101000a900460ff1680611574575060008054906101000a900460ff16155b6115b3576040517f08c379a00000000000000000000000000000000000000000000000000000000081526004016115aa9061335a565b60405180910390fd5b60008060019054906101000a900460ff161590508015611603576001600060016101000a81548160ff02191690831515021790555060016000806101000a81548160ff0219169083151502179055505b61160b611b27565b611613611c10565b80156116345760008060016101000a81548160ff0219169083151502179055505b50565b61163f6119b7565b73ffffffffffffffffffffffffffffffffffffffff1661165d6117cd565b73ffffffffffffffffffffffffffffffffffffffff16146116b3576040517f08c379a00000000000000000000000000000000000000000000000000000000081526004016116aa906131b3565b60405180910390fd5b6116bb611cf9565b565b60986020528060005260406000206000915090508060000154908060010180546116e690612cbc565b80601f016020809104026020016040519081016040528092919081815260200182805461171290612cbc565b801561175f5780601f106117345761010080835404028352916020019161175f565b820191906000526020600020905b81548152906001019060200180831161174257829003601f168201915b5050505050908060020160009054906101000a900473ffffffffffffffffffffffffffffffffffffffff16908060030154908060060154908060070154908060080160009054906101000a900460ff16908060080160019054906101000a900460ff16908060090154905089565b6000606560009054906101000a900473ffffffffffffffffffffffffffffffffffffffff16905090565b6099602052816000526040600020818154811061181357600080fd5b90600052602060002001600091509150505481565b6060609960008373ffffffffffffffffffffffffffffffffffffffff1673ffffffffffffffffffffffffffffffffffffffff1681526020019081526020016000208054806020026020016040519081016040528092919081815260200182805480156118b357602002820191906000526020600020905b81548152602001906001019080831161189f575b50505050509050919050565b6118c76119b7565b73ffffffffffffffffffffffffffffffffffffffff166118e56117cd565b73ffffffffffffffffffffffffffffffffffffffff161461193b576040517f08c379a0000000000000000000000000000000000000000000000000000000008152600401611932906131b3565b60405180910390fd5b600073ffffffffffffffffffffffffffffffffffffffff168173ffffffffffffffffffffffffffffffffffffffff1614156119ab576040517f08c379a00000000000000000000000000000000000000000000000000000000081526004016119a2906133ec565b60405180910390fd5b6119b481611a61565b50565b600033905090565b6119c76114af565b611a06576040517f08c379a00000000000000000000000000000000000000000000000000000000081526004016119fd90613458565b60405180910390fd5b6000603360006101000a81548160ff0219169083151502179055507f5db9ee0a495bf2e6ff9c91a7834c1ba4fdd244a5e8aa4e537bd38aeae4b073aa611a4a6119b7565b604051611a5791906128e2565b60405180910390a1565b6000606560009054906101000a900473ffffffffffffffffffffffffffffffffffffffff16905081606560006101000a81548173ffffffffffffffffffffffffffffffffffffffff021916908373ffffffffffffffffffffffffffffffffffffffff1602179055508173ffffffffffffffffffffffffffffffffffffffff168173ffffffffffffffffffffffffffffffffffffffff167f8be0079c531659141344cd1fd0a4f28419497f9722a3daafe3b4186f6b6457e060405160405180910390a35050565b600060019054906101000a900460ff1680611b4d575060008054906101000a900460ff16155b611b8c576040517f08c379a0000000000000000000000000000000000000000000000000000000008152600401611b839061335a565b60405180910390fd5b60008060019054906101000a900460ff161590508015611bdc576001600060016101000a81548160ff02191690831515021790555060016000806101000a81548160ff0219169083151502179055505b611be4611d9c565b611bec611e75565b8015611c0d5760008060016101000a81548160ff0219169083151502179055505b50565b600060019054906101000a900460ff1680611c36575060008054906101000a900460ff16155b611c75576040517f08c379a0000000000000000000000000000000000000000000000000000000008152600401611c6c9061335a565b60405180910390fd5b60008060019054906101000a900460ff161590508015611cc5576001600060016101000a81548160ff02191690831515021790555060016000806101000a81548160ff0219169083151502179055505b611ccd611d9c565b611cd5611f5e565b8015611cf65760008060016101000a81548160ff0219169083151502179055505b50565b611d016114af565b15611d41576040517f08c379a0000000000000000000000000000000000000000000000000000000008152600401611d3890612add565b60405180910390fd5b6001603360006101000a81548160ff0219169083151502179055507f62e78cea01bee320cd4e420270b5ea74000d11b0c9f74754ebdbfc544b05a258611d856119b7565b604051611d9291906128e2565b60405180910390a1565b600060019054906101000a900460ff1680611dc2575060008054906101000a900460ff16155b611e01576040517f08c379a0000000000000000000000000000000000000000000000000000000008152600401611df89061335a565b60405180910390fd5b60008060019054906101000a900460ff161590508015611e51576001600060016101000a81548160ff02191690831515021790555060016000806101000a81548160ff0219169083151502179055505b8015611e725760008060016101000a81548160ff0219169083151502179055505b50565b600060019054906101000a900460ff1680611e9b575060008054906101000a900460ff16155b611eda576040517f08c379a0000000000000000000000000000000000000000000000000000000008152600401611ed19061335a565b60405180910390fd5b60008060019054906101000a900460ff161590508015611f2a576001600060016101000a81548160ff02191690831515021790555060016000806101000a81548160ff0219169083151502179055505b611f3a611f356119b7565b611a61565b8015611f5b5760008060016101000a81548160ff0219169083151502179055505b50565b600060019054906101000a900460ff1680611f84575060008054906101000a900460ff16155b611fc3576040517f08c379a0000000000000000000000000000000000000000000000000000000008152600401611fba9061335a565b60405180910390fd5b60008060019054906101000a900460ff161590508015612013576001600060016101000a81548160ff02191690831515021790555060016000806101000a81548160ff0219169083151502179055505b6000603360006101000a81548160ff021916908315150217905550801561204f5760008060016101000a81548160ff0219169083151502179055505b50565b82805461205e90612cbc565b90600052602060002090601f01602090048101928261208057600085556120c7565b82601f1061209957805160ff19168380011785556120c7565b828001600101855582156120c7579182015b828111156120c65782518255916020019190600101906120ab565b5b5090506120d49190612138565b5090565b828054828255906000526020600020908101928215612127579160200282015b82811115612126578251829080519060200190612116929190612052565b50916020019190600101906120f8565b5b5090506121349190612155565b5090565b5b80821115612151576000816000905550600101612139565b5090565b5b80821115612175576000818161216c9190612179565b50600101612156565b5090565b50805461218590612cbc565b6000825580601f1061219757506121b6565b601f0160209004906000526020600020908101906121b59190612138565b5b50565b6000604051905090565b600080fd5b600080fd5b6000819050919050565b6121e0816121cd565b81146121eb57600080fd5b50565b6000813590506121fd816121d7565b92915050565b600060208284031215612219576122186121c3565b5b6000612227848285016121ee565b91505092915050565b60008115159050919050565b61224581612230565b82525050565b6000602082019050612260600083018461223c565b92915050565b600081519050919050565b600082825260208201905092915050565b60005b838110156122a0578082015181840152602081019050612285565b838111156122af576000848401525b50505050565b6000601f19601f8301169050919050565b60006122d182612266565b6122db8185612271565b93506122eb818560208601612282565b6122f4816122b5565b840191505092915050565b600073ffffffffffffffffffffffffffffffffffffffff82169050919050565b600061232a826122ff565b9050919050565b61233a8161231f565b82525050565b612349816121cd565b82525050565b600081519050919050565b600082825260208201905092915050565b6000819050602082019050919050565b600082825260208201905092915050565b600061239782612266565b6123a1818561237b565b93506123b1818560208601612282565b6123ba816122b5565b840191505092915050565b60006123d1838361238c565b905092915050565b6000602082019050919050565b60006123f18261234f565b6123fb818561235a565b93508360208202850161240d8561236b565b8060005b85811015612449578484038952815161242a85826123c5565b9450612435836123d9565b925060208a01995050600181019050612411565b50829750879550505050505092915050565b6000610140820190508181036000830152612476818d6122c6565b9050612485602083018c612331565b612492604083018b612340565b81810360608301526124a4818a6123e6565b905081810360808301526124b881896123e6565b90506124c760a0830188612340565b6124d460c0830187612340565b6124e160e083018661223c565b6124ef61010083018561223c565b6124fd610120830184612340565b9b9a5050505050505050505050565b600080fd5b600080fd5b7f4e487b7100000000000000000000000000000000000000000000000000000000600052604160045260246000fd5b61254e826122b5565b810181811067ffffffffffffffff8211171561256d5761256c612516565b5b80604052505050565b60006125806121b9565b905061258c8282612545565b919050565b600067ffffffffffffffff8211156125ac576125ab612516565b5b6125b5826122b5565b9050602081019050919050565b82818337600083830152505050565b60006125e46125df84612591565b612576565b905082815260208101848484011115612600576125ff612511565b5b61260b8482856125c2565b509392505050565b600082601f8301126126285761262761250c565b5b81356126388482602086016125d1565b91505092915050565b60008060408385031215612658576126576121c3565b5b6000612666858286016121ee565b925050602083013567ffffffffffffffff811115612687576126866121c8565b5b61269385828601612613565b9150509250929050565b600080604083850312156126b4576126b36121c3565b5b60006126c2858286016121ee565b92505060206126d3858286016121ee565b9150509250929050565b600067ffffffffffffffff8211156126f8576126f7612516565b5b602082029050602081019050919050565b600080fd5b600061272161271c846126dd565b612576565b9050808382526020820190506020840283018581111561274457612743612709565b5b835b8181101561278b57803567ffffffffffffffff8111156127695761276861250c565b5b8086016127768982612613565b85526020850194505050602081019050612746565b5050509392505050565b600082601f8301126127aa576127a961250c565b5b81356127ba84826020860161270e565b91505092915050565b6000806000606084860312156127dc576127db6121c3565b5b600084013567ffffffffffffffff8111156127fa576127f96121c8565b5b61280686828701612613565b9350506020612817868287016121ee565b925050604084013567ffffffffffffffff811115612838576128376121c8565b5b61284486828701612795565b9150509250925092565b600061012082019050612864600083018c612340565b8181036020830152612876818b6122c6565b9050612885604083018a612331565b6128926060830189612340565b61289f6080830188612340565b6128ac60a0830187612340565b6128b960c083018661223c565b6128c660e083018561223c565b6128d4610100830184612340565b9a9950505050505050505050565b60006020820190506128f76000830184612331565b92915050565b6129068161231f565b811461291157600080fd5b50565b600081359050612923816128fd565b92915050565b600080604083850312156129405761293f6121c3565b5b600061294e85828601612914565b925050602061295f858286016121ee565b9150509250929050565b600060208201905061297e6000830184612340565b92915050565b60006020828403121561299a576129996121c3565b5b60006129a884828501612914565b91505092915050565b600081519050919050565b600082825260208201905092915050565b6000819050602082019050919050565b6129e6816121cd565b82525050565b60006129f883836129dd565b60208301905092915050565b6000602082019050919050565b6000612a1c826129b1565b612a2681856129bc565b9350612a31836129cd565b8060005b83811015612a62578151612a4988826129ec565b9750612a5483612a04565b925050600181019050612a35565b5085935050505092915050565b60006020820190508181036000830152612a898184612a11565b905092915050565b7f5061757361626c653a2070617573656400000000000000000000000000000000600082015250565b6000612ac7601083612271565b9150612ad282612a91565b602082019050919050565b60006020820190508181036000830152612af681612aba565b9050919050565b7f596f7520617265206e6f7420746865207061796d656e7420726563656976657260008201527f2c63616e6e6f7420646f20746869730000000000000000000000000000000000602082015250565b6000612b59602f83612271565b9150612b6482612afd565b604082019050919050565b60006020820190508181036000830152612b8881612b4c565b9050919050565b7f546865207061796d656e7420697320616c72656164792063616e63656c656400600082015250565b6000612bc5601f83612271565b9150612bd082612b8f565b602082019050919050565b60006020820190508181036000830152612bf481612bb8565b9050919050565b7f546865207061796d656e7420697320616c72656164792066696e69736865642c60008201527f63616e6e6f742062652063616e63656c65640000000000000000000000000000602082015250565b6000612c57603283612271565b9150612c6282612bfb565b604082019050919050565b60006020820190508181036000830152612c8681612c4a565b9050919050565b7f4e487b7100000000000000000000000000000000000000000000000000000000600052602260045260246000fd5b60006002820490506001821680612cd457607f821691505b60208210811415612ce857612ce7612c8d565b5b50919050565b7f4e487b7100000000000000000000000000000000000000000000000000000000600052603260045260246000fd5b600081905092915050565b60008190508160005260206000209050919050565b60008154612d4a81612cbc565b612d548186612d1d565b94506001821660008114612d6f5760018114612d8057612db3565b60ff19831686528186019350612db3565b612d8985612d28565b60005b83811015612dab57815481890152600182019150602081019050612d8c565b838801955050505b50505092915050565b6000612dc88284612d3d565b915081905092915050565b6000612dde82612266565b612de88185612d1d565b9350612df8818560208601612282565b80840191505092915050565b6000612e108284612dd3565b915081905092915050565b7f4e487b7100000000000000000000000000000000000000000000000000000000600052601160045260246000fd5b6000612e55826121cd565b91507fffffffffffffffffffffffffffffffffffffffffffffffffffffffffffffffff821415612e8857612e87612e1b565b5b600182019050919050565b7f746865207061796572206e616d65206973206e6f7420696e207468697320706160008201527f796d656e742773207061796572206c6973740000000000000000000000000000602082015250565b6000612eef603283612271565b9150612efa82612e93565b604082019050919050565b60006020820190508181036000830152612f1e81612ee2565b9050919050565b7f596f75206861766520616c726561647920706169642c73686f756c64206e6f7460008201527f2070617920747769636500000000000000000000000000000000000000000000602082015250565b6000612f81602a83612271565b9150612f8c82612f25565b604082019050919050565b60006020820190508181036000830152612fb081612f74565b9050919050565b7f73686f756c642070617920656e6f756768206d6f6e6579000000000000000000600082015250565b6000612fed601783612271565b9150612ff882612fb7565b602082019050919050565b6000602082019050818103600083015261301c81612fe0565b9050919050565b600061302e826121cd565b9150613039836121cd565b9250827fffffffffffffffffffffffffffffffffffffffffffffffffffffffffffffffff0382111561306e5761306d612e1b565b5b828201905092915050565b600060a08201905061308e6000830188612340565b81810360208301526130a081876122c6565b90506130af6040830186612331565b6130bc6060830185612340565b6130c96080830184612340565b9695505050505050565b7f4e487b7100000000000000000000000000000000000000000000000000000000600052601260045260246000fd5b600061310d826121cd565b9150613118836121cd565b925082613128576131276130d3565b5b828204905092915050565b600061313e826121cd565b9150613149836121cd565b92508282101561315c5761315b612e1b565b5b828203905092915050565b7f4f776e61626c653a2063616c6c6572206973206e6f7420746865206f776e6572600082015250565b600061319d602083612271565b91506131a882613167565b602082019050919050565b600060208201905081810360008301526131cc81613190565b9050919050565b7f7061796d656e742073686f756c64206861766520656e6f7567682062616c616e60008201527f636520746f207769746864726177000000000000000000000000000000000000602082015250565b600061322f602e83612271565b915061323a826131d3565b604082019050919050565b6000602082019050818103600083015261325e81613222565b9050919050565b600060808201905061327a6000830187612340565b6132876020830186612340565b6132946040830185612340565b6132a16060830184612331565b95945050505050565b60006060820190506132bf6000830186612331565b6132cc6020830185612340565b81810360408301526132de81846123e6565b9050949350505050565b7f496e697469616c697a61626c653a20636f6e747261637420697320616c72656160008201527f647920696e697469616c697a6564000000000000000000000000000000000000602082015250565b6000613344602e83612271565b915061334f826132e8565b604082019050919050565b6000602082019050818103600083015261337381613337565b9050919050565b7f4f776e61626c653a206e6577206f776e657220697320746865207a65726f206160008201527f6464726573730000000000000000000000000000000000000000000000000000602082015250565b60006133d6602683612271565b91506133e18261337a565b604082019050919050565b60006020820190508181036000830152613405816133c9565b9050919050565b7f5061757361626c653a206e6f7420706175736564000000000000000000000000600082015250565b6000613442601483612271565b915061344d8261340c565b602082019050919050565b6000602082019050818103600083015261347181613435565b905091905056fea26469706673582212206b3b69196d41a3030d6ca0a520d8d27a396eae316e5ed170469368336d12f85d64736f6c63430008090033",
  "immutableReferences": {},
  "source": "// SPDX-License-Identifier: MIT\npragma solidity 0.8.9;\n\nimport \"@openzeppelin/contracts-upgradeable/security/PausableUpgradeable.sol\";\nimport \"@openzeppelin/contracts-upgradeable/access/OwnableUpgradeable.sol\";\n\n/// @title Create Payment on chain\n/// @author Silentnoname\n/// @notice This is an experimental contractplease use at your own risk. Anyone can use this contract to create payment,pay payment\n/// @dev This contract can be implemented as a upgradeable contract \ncontract createpayment_onchain is PausableUpgradeable ,OwnableUpgradeable{  \n    /// @notice Initialize the owner and pause situation\n    /// @dev the initial owner is msg.sender,paused is false\n    function initialize() initializer public {\n      __Ownable_init();\n      __Pausable_init();\n    }\n\n    /// @dev An increment interger for recording payment id\n    uint counter;\n\n    /// @notice A structure for each payment.\n    struct Payment {\n          uint id;\n          string name;\n          address  receiver;\n          uint256 total_am;\n          string[]  payer_list;\n          string[]  paid_payer_list;\n          uint256 received_am;\n          uint256 balance;\n          bool iscanceled;\n          bool isfinished;  \n          uint256 price;\n      }\n\n    /// @dev A map from id to payment\n    mapping (uint => Payment) public payments;\n\n    /// @dev A map from address to id array\n    mapping (address => uint[]) public paymentsbook;\n\n    /// @notice Event when createpayment\n    event Logcreatepayment(uint indexed id,address receiver,uint256 total_am,string[] _payer_list );\n\n    /// @notice Event when cancelpayment\n    event Logcancelpayment(uint indexed id);\n\n    /// @notice Event when pay\n    event Logpay(uint id,string payer,address payer_address,uint256 price,uint256 received_am );\n\n    /// @notice Event when withdraw\n    event Logwithdraw(uint id,uint256 amount,uint256 balance,address receiver);\n\n    /// @notice Event when payment finish\n    event Logfinish(uint indexed id);\n\n    modifier isReiceiver(uint _id){\n      require(msg.sender==payments[_id].receiver,\"You are not the payment receiver,cannot do this\");\n      _;\n    } \n\n    modifier notcanceled (uint _id){\n      require(payments[_id]. iscanceled== false,\"The payment is already canceled\");\n      _;\n    } \n    \n    /// Check the payment finished or no by compare the length of payer_list and paid_payer_list, if equal,payment is finished\n    modifier checkfinished (uint _id){\n      _;\n      if (payments[_id].payer_list.length== payments[_id].paid_payer_list.length)\n      {\n        payments[_id].isfinished=true;\n        emit Logfinish(_id);\n      }\n    }\n\n    modifier checkValue(uint _id) {\n    /// Refund them after pay for item (why it is before, _ checks for logic before func)\n      _;\n      uint256 _price=payments[_id].total_am/payments[_id].payer_list.length;\n      uint amountToRefund = msg.value - _price;\n      payable(msg.sender).transfer(amountToRefund);\n    }\n    \n    /// @notice Only owner can pause \n    function pause() public onlyOwner {\n      _pause();\n    }\n\n    /// @notice Only owner can unpause \n    function unpause() public onlyOwner {\n      _unpause();\n    }\n\n    /// @notice Create a payment by name,total amount,payer list.The payment receiver will be the man who create this payment.\n    /// @dev Store payment in payments[counter].Payment id will be same as the counter. Payment id will be pushed into paymentsbook[msg.sender]. counter +1\n    /// @param _name Name of the payment as the people who create the payment want\n    /// @param _total_am Total amount of this paymeny\n    /// @param _payer_list The list of the payer name\n    function createpayment (string memory _name,uint256 _total_am,string[] memory _payer_list) public whenNotPaused() returns (bool) {\n      payments[counter]=Payment({\n        id:counter,\n        name:_name,\n        receiver: msg.sender,\n        total_am: _total_am,\n        payer_list:_payer_list,\n        paid_payer_list:new string[](0),\n        received_am:0,\n        balance:0,\n        iscanceled:false,\n        isfinished:false,\n        price: _total_am/_payer_list.length\n      });\n      emit Logcreatepayment(counter,msg.sender,_total_am, _payer_list);\n      paymentsbook[msg.sender].push(counter);\n      counter++;\n      return true;\n    }\n    \n    /// @notice Cancel the payment by payment id(only payment receiver can cancel this payment,finised payment cannot be canceled)\n    /// @dev Change payments[_id].iscanceled to be true\n    /// @param _id ID of the payment \n    function cancelpayment(uint _id) public whenNotPaused() isReiceiver(_id) notcanceled(_id) returns(bool){\n      require(payments[_id].isfinished==false,\"The payment is already finished,cannot be canceled\");\n      payments[_id].iscanceled=true;\n      emit Logcancelpayment(_id);\n      return true;\n    }\n\n    /// @notice Pay the payment by payment id and payer name,should pay enough money and give right payer name.One payer can only pay once,extra money will be refunded.(canceled payment cannot pay) \n    /// @dev  payments[_id].received_am and payments[_id].balance both +payments[_id].price. Push _payer in payments[_id].paid_payer_list. \n    /// @param _id ID of the payment\n    /// @param _payer Name of the payer \n    function pay(uint _id, string memory _payer)payable public whenNotPaused() checkValue(_id)  checkfinished (_id) notcanceled(_id) returns(bool){\n      bool ispayer=false;\n      bool paid=false;\n      for(uint i=0;i<payments[_id].payer_list.length;i++)\n      {\n        if( keccak256(abi.encodePacked(_payer)) ==keccak256(abi.encodePacked(payments[_id].payer_list[i])) ){\n          ispayer=true;\n        }\n      }\n      require(ispayer==true,\"the payer name is not in this payment's payer list\");\n          for(uint i=0;i<payments[_id].paid_payer_list.length;i++)\n      {\n        if( keccak256(abi.encodePacked(_payer)) ==keccak256(abi.encodePacked(payments[_id].paid_payer_list[i])) ){\n          paid=true;\n        }\n      }\n      require (paid ==false,\"You have already paid,should not pay twice\");\n      require(msg.value>=payments[_id].price,\"should pay enough money\");\n      payments[_id].paid_payer_list.push(_payer);\n      payments[_id].received_am=payments[_id].received_am+payments[_id].price;\n      payments[_id].balance=payments[_id].balance+payments[_id].price;\n      emit Logpay(_id,_payer,msg.sender,payments[_id].price,payments[_id].received_am);\n      return true ;\n    }\n\n    /// @notice Withdraw the balance of payment by payment id and withdraw amount (only payment receiver can withdraw this payment's balance)\n    /// @dev payments[_id].balance minus _withdraw_amount,transfer _withdraw_amount to msg.sender\n    /// @param _id ID of the payment\n    /// @param _withdraw_amount The amount payment receiver want to withdraw\n    function withdraw(uint _id,uint256 _withdraw_amount)public whenNotPaused() isReiceiver(_id)  {\n      require(payments[_id].balance>=_withdraw_amount,\"payment should have enough balance to withdraw\");\n      payments[_id].balance=payments[_id].balance-_withdraw_amount;\n      payable(msg.sender).transfer(_withdraw_amount);\n      emit Logwithdraw(_id, _withdraw_amount, payments[_id].balance, msg.sender);\n    }  \n    \n    /// @notice Get the payment detail by payment ID\n    /// @dev  Get the payment detail by payments[_id]\n    /// @param _id ID of the payment\n    /// @return name Payment name\n    /// @return receiver Payment receiver address\n    /// @return total_am Payment total amount\n    /// @return payer_list Payment payer list\n    /// @return paid_payer_list Payment paid payer list\n    /// @return received_am Payment total received amount\n    /// @return balance Payment current balance\n    /// @return iscanceled Payment canceled or no\n    /// @return isfinished payment finished or no\n    /// @return price payment price\n    function fetch_payment (uint _id) public view returns(string memory name,address receiver,uint256  total_am,string[] memory payer_list,string[] memory paid_payer_list,uint256 received_am,uint256 balance,bool iscanceled,bool isfinished,uint256 price){\n      name=payments[_id].name;\n      receiver=payments[_id].receiver;\n      total_am=payments[_id].total_am;\n      payer_list=payments[_id].payer_list;\n      paid_payer_list=payments[_id].paid_payer_list;\n      received_am=payments[_id].received_am;\n      balance=payments[_id].balance;\n      iscanceled=payments[_id].iscanceled;\n      isfinished=payments[_id].isfinished;\n      price=payments[_id].price;\n      return (name,receiver,total_am,payer_list,paid_payer_list,received_am,balance,iscanceled,isfinished,price);\n    }\n\n    /// @notice Get the payments created by given address\n    /// @dev Get the array of payments' id by paymentsbook[_receiver_address]\n    /// @param _receiver_address address who created payments\n    /// @return payments_book Array of payments' id created by given address\n    function fetch_paymentsbook (address _receiver_address) public view returns(uint[] memory payments_book){\n      payments_book=paymentsbook[_receiver_address];\n      return payments_book;\n    }\n}\n",
  "sourcePath": "/Users/silent/git/createpaymentcontract/contracts/createpayment_onchain.sol",
  "compiler": {
    "name": "solc",
    "version": "0.8.9+commit.e5eed63a.Emscripten.clang"
  },
  "schemaVersion": "3.4.3",
  "updatedAt": "2021-12-10T15:07:54.886Z",
  "devdoc": {
    "author": "Silentnoname",
    "details": "This contract can be implemented as a upgradeable contract ",
    "kind": "dev",
    "methods": {
      "cancelpayment(uint256)": {
        "details": "Change payments[_id].iscanceled to be true",
        "params": {
          "_id": "ID of the payment "
        }
      },
      "createpayment(string,uint256,string[])": {
        "details": "Store payment in payments[counter].Payment id will be same as the counter. Payment id will be pushed into paymentsbook[msg.sender]. counter +1",
        "params": {
          "_name": "Name of the payment as the people who create the payment want",
          "_payer_list": "The list of the payer name",
          "_total_am": "Total amount of this paymeny"
        }
      },
      "fetch_payment(uint256)": {
        "details": "Get the payment detail by payments[_id]",
        "params": {
          "_id": "ID of the payment"
        },
        "returns": {
          "balance": "Payment current balance",
          "iscanceled": "Payment canceled or no",
          "isfinished": "payment finished or no",
          "name": "Payment name",
          "paid_payer_list": "Payment paid payer list",
          "payer_list": "Payment payer list",
          "price": "payment price",
          "received_am": "Payment total received amount",
          "receiver": "Payment receiver address",
          "total_am": "Payment total amount"
        }
      },
      "fetch_paymentsbook(address)": {
        "details": "Get the array of payments' id by paymentsbook[_receiver_address]",
        "params": {
          "_receiver_address": "address who created payments"
        },
        "returns": {
          "payments_book": "Array of payments' id created by given address"
        }
      },
      "initialize()": {
        "details": "the initial owner is msg.sender,paused is false"
      },
      "owner()": {
        "details": "Returns the address of the current owner."
      },
      "paused()": {
        "details": "Returns true if the contract is paused, and false otherwise."
      },
      "pay(uint256,string)": {
        "details": "payments[_id].received_am and payments[_id].balance both +payments[_id].price. Push _payer in payments[_id].paid_payer_list. ",
        "params": {
          "_id": "ID of the payment",
          "_payer": "Name of the payer "
        }
      },
      "renounceOwnership()": {
        "details": "Leaves the contract without owner. It will not be possible to call `onlyOwner` functions anymore. Can only be called by the current owner. NOTE: Renouncing ownership will leave the contract without an owner, thereby removing any functionality that is only available to the owner."
      },
      "transferOwnership(address)": {
        "details": "Transfers ownership of the contract to a new account (`newOwner`). Can only be called by the current owner."
      },
      "withdraw(uint256,uint256)": {
        "details": "payments[_id].balance minus _withdraw_amount,transfer _withdraw_amount to msg.sender",
        "params": {
          "_id": "ID of the payment",
          "_withdraw_amount": "The amount payment receiver want to withdraw"
        }
      }
    },
    "stateVariables": {
      "counter": {
        "details": "An increment interger for recording payment id"
      },
      "payments": {
        "details": "A map from id to payment"
      },
      "paymentsbook": {
        "details": "A map from address to id array"
      }
    },
    "title": "Create Payment on chain",
    "version": 1
  },
  "userdoc": {
    "events": {
      "Logcancelpayment(uint256)": {
        "notice": "Event when cancelpayment"
      },
      "Logcreatepayment(uint256,address,uint256,string[])": {
        "notice": "Event when createpayment"
      },
      "Logfinish(uint256)": {
        "notice": "Event when payment finish"
      },
      "Logpay(uint256,string,address,uint256,uint256)": {
        "notice": "Event when pay"
      },
      "Logwithdraw(uint256,uint256,uint256,address)": {
        "notice": "Event when withdraw"
      }
    },
    "kind": "user",
    "methods": {
      "cancelpayment(uint256)": {
        "notice": "Cancel the payment by payment id(only payment receiver can cancel this payment,finised payment cannot be canceled)"
      },
      "createpayment(string,uint256,string[])": {
        "notice": "Create a payment by name,total amount,payer list.The payment receiver will be the man who create this payment."
      },
      "fetch_payment(uint256)": {
        "notice": "Get the payment detail by payment ID"
      },
      "fetch_paymentsbook(address)": {
        "notice": "Get the payments created by given address"
      },
      "initialize()": {
        "notice": "Initialize the owner and pause situation"
      },
      "pause()": {
        "notice": "Only owner can pause "
      },
      "pay(uint256,string)": {
        "notice": "Pay the payment by payment id and payer name,should pay enough money and give right payer name.One payer can only pay once,extra money will be refunded.(canceled payment cannot pay) "
      },
      "unpause()": {
        "notice": "Only owner can unpause "
      },
      "withdraw(uint256,uint256)": {
        "notice": "Withdraw the balance of payment by payment id and withdraw amount (only payment receiver can withdraw this payment's balance)"
      }
    },
    "notice": "This is an experimental contractplease use at your own risk. Anyone can use this contract to create payment,pay payment",
    "version": 1
  }
}